{
  "contractName": "Casino",
  "abi": [
    {
      "constant": true,
      "inputs": [],
      "name": "numberOfBets",
      "outputs": [
        {
          "name": "",
          "type": "uint256"
        }
      ],
      "payable": false,
      "stateMutability": "view",
      "type": "function"
    },
    {
      "constant": true,
      "inputs": [
        {
          "name": "",
          "type": "address"
        }
      ],
      "name": "playerInfo",
      "outputs": [
        {
          "name": "amountBet",
          "type": "uint256"
        },
        {
          "name": "numberSelected",
          "type": "uint256"
        }
      ],
      "payable": false,
      "stateMutability": "view",
      "type": "function"
    },
    {
      "constant": true,
      "inputs": [],
      "name": "owner",
      "outputs": [
        {
          "name": "",
          "type": "address"
        }
      ],
      "payable": false,
      "stateMutability": "view",
      "type": "function"
    },
    {
      "constant": true,
      "inputs": [],
      "name": "minimumBet",
      "outputs": [
        {
          "name": "",
          "type": "uint256"
        }
      ],
      "payable": false,
      "stateMutability": "view",
      "type": "function"
    },
    {
      "constant": true,
      "inputs": [],
      "name": "maxAmountOfBets",
      "outputs": [
        {
          "name": "",
          "type": "uint256"
        }
      ],
      "payable": false,
      "stateMutability": "view",
      "type": "function"
    },
    {
      "constant": true,
      "inputs": [
        {
          "name": "",
          "type": "uint256"
        }
      ],
      "name": "players",
      "outputs": [
        {
          "name": "",
          "type": "address"
        }
      ],
      "payable": false,
      "stateMutability": "view",
      "type": "function"
    },
    {
      "constant": true,
      "inputs": [],
      "name": "totalBet",
      "outputs": [
        {
          "name": "",
          "type": "uint256"
        }
      ],
      "payable": false,
      "stateMutability": "view",
      "type": "function"
    },
    {
      "inputs": [
        {
          "name": "_minimumBet",
          "type": "uint256"
        }
      ],
      "payable": false,
      "stateMutability": "nonpayable",
      "type": "constructor"
    },
    {
      "payable": true,
      "stateMutability": "payable",
      "type": "fallback"
    },
    {
      "anonymous": false,
      "inputs": [
        {
          "indexed": false,
          "name": "from",
          "type": "address"
        },
        {
          "indexed": false,
          "name": "bet",
          "type": "uint256"
        },
        {
          "indexed": false,
          "name": "totalValue",
          "type": "uint256"
        }
      ],
      "name": "BetAccepted",
      "type": "event"
    },
    {
      "anonymous": false,
      "inputs": [
        {
          "indexed": false,
          "name": "winNumber",
          "type": "uint256"
        }
      ],
      "name": "WinNumber",
      "type": "event"
    },
    {
      "anonymous": false,
      "inputs": [
        {
          "indexed": false,
          "name": "from",
          "type": "address"
        },
        {
          "indexed": false,
          "name": "winnerEtherAmount",
          "type": "uint256"
        }
      ],
      "name": "WinAddress",
      "type": "event"
    },
    {
      "constant": false,
      "inputs": [
        {
          "name": "numberSelected",
          "type": "uint256"
        }
      ],
      "name": "bet",
      "outputs": [],
      "payable": true,
      "stateMutability": "payable",
      "type": "function"
    },
    {
      "constant": true,
      "inputs": [
        {
          "name": "player",
          "type": "address"
        }
      ],
      "name": "checkPlayerExists",
      "outputs": [
        {
          "name": "",
          "type": "bool"
        }
      ],
      "payable": false,
      "stateMutability": "view",
      "type": "function"
    },
    {
      "constant": false,
      "inputs": [],
      "name": "generateNumberWinner",
      "outputs": [],
      "payable": false,
      "stateMutability": "nonpayable",
      "type": "function"
    },
    {
      "constant": false,
      "inputs": [
        {
          "name": "numberWinner",
          "type": "uint256"
        }
      ],
      "name": "distributePrizes",
      "outputs": [],
      "payable": false,
      "stateMutability": "nonpayable",
      "type": "function"
    }
  ],
  "bytecode": "0x6080604052600360045534801561001557600080fd5b50604051602080610b5f83398101806040528101908080519060200190929190505050336000806101000a81548173ffffffffffffffffffffffffffffffffffffffff021916908373ffffffffffffffffffffffffffffffffffffffff16021790555060008114151561008a57806001819055505b50610ac58061009a6000396000f3006080604052600436106100af576000357c0100000000000000000000000000000000000000000000000000000000900463ffffffff1680630a50e361146100b15780632ca8c6d3146100c85780634081d916146100f35780634b1146911461014e5780636ca3fc3b146101ac5780637365870b146101d95780638da5cb5b146101f9578063c38a8afd14610250578063e08a96cd1461027b578063f71d96cb146102a6578063fe5e185314610313575b005b3480156100bd57600080fd5b506100c661033e565b005b3480156100d457600080fd5b506100dd610395565b6040518082815260200191505060405180910390f35b3480156100ff57600080fd5b50610134600480360381019080803573ffffffffffffffffffffffffffffffffffffffff16906020019092919050505061039b565b604051808215151515815260200191505060405180910390f35b34801561015a57600080fd5b5061018f600480360381019080803573ffffffffffffffffffffffffffffffffffffffff16906020019092919050505061043e565b604051808381526020018281526020019250505060405180910390f35b3480156101b857600080fd5b506101d760048036038101908080359060200190929190505050610462565b005b6101f7600480360381019080803590602001909291905050506107a6565b005b34801561020557600080fd5b5061020e61098d565b604051808273ffffffffffffffffffffffffffffffffffffffff1673ffffffffffffffffffffffffffffffffffffffff16815260200191505060405180910390f35b34801561025c57600080fd5b506102656109b2565b6040518082815260200191505060405180910390f35b34801561028757600080fd5b506102906109b8565b6040518082815260200191505060405180910390f35b3480156102b257600080fd5b506102d1600480360381019080803590602001909291905050506109be565b604051808273ffffffffffffffffffffffffffffffffffffffff1673ffffffffffffffffffffffffffffffffffffffff16815260200191505060405180910390f35b34801561031f57600080fd5b506103286109fc565b6040518082815260200191505060405180910390f35b60006001600a4381151561034e57fe5b060190507f0f038798d00a0f2c6e9f0960633794af8b99aebda142772b9d532640d76b221f816040518082815260200191505060405180910390a161039281610462565b50565b60035481565b600080600090505b600580549050811015610433578273ffffffffffffffffffffffffffffffffffffffff166005828154811015156103d657fe5b9060005260206000200160009054906101000a900473ffffffffffffffffffffffffffffffffffffffff1673ffffffffffffffffffffffffffffffffffffffff1614156104265760019150610438565b80806001019150506103a3565b600091505b50919050565b60066020528060005260406000206000915090508060000154908060010154905082565b61046a610a24565b60008060008060008060009550600094505b6005805490508510156105bd5760058581548110151561049857fe5b9060005260206000200160009054906101000a900473ffffffffffffffffffffffffffffffffffffffff16935087600660008673ffffffffffffffffffffffffffffffffffffffff1673ffffffffffffffffffffffffffffffffffffffff16815260200190815260200160002060010154141561055e5783878760648110151561051e57fe5b602002019073ffffffffffffffffffffffffffffffffffffffff16908173ffffffffffffffffffffffffffffffffffffffff168152505085806001019650505b600660008573ffffffffffffffffffffffffffffffffffffffff1673ffffffffffffffffffffffffffffffffffffffff16815260200190815260200160002060008082016000905560018201600090555050848060010195505061047c565b60006005816105cc9190610a48565b5060646002548115156105db57fe5b04925060648302600254039150600090505b8581101561072157600073ffffffffffffffffffffffffffffffffffffffff16878260648110151561061b57fe5b602002015173ffffffffffffffffffffffffffffffffffffffff1614151561069757868160648110151561064b57fe5b602002015173ffffffffffffffffffffffffffffffffffffffff166108fc849081150290604051600060405180830381858888f19350505050158015610695573d6000803e3d6000fd5b505b7f05f39a9ed9c6971d254f98b761668816daa6bfd377346e4184508e34f0cf602f87826064811015156106c657fe5b602002015184604051808373ffffffffffffffffffffffffffffffffffffffff1673ffffffffffffffffffffffffffffffffffffffff1681526020018281526020019250505060405180910390a180806001019150506105ed565b600082141515610794576000809054906101000a900473ffffffffffffffffffffffffffffffffffffffff1673ffffffffffffffffffffffffffffffffffffffff166108fc839081150290604051600060405180830381858888f19350505050158015610792573d6000803e3d6000fd5b505b61079c610a02565b5050505050505050565b6107af3361039b565b1515156107bb57600080fd5b600181101580156107cd5750600a8111155b15156107d857600080fd5b60015434101515156107e957600080fd5b34600660003373ffffffffffffffffffffffffffffffffffffffff1673ffffffffffffffffffffffffffffffffffffffff1681526020019081526020016000206000018190555080600660003373ffffffffffffffffffffffffffffffffffffffff1673ffffffffffffffffffffffffffffffffffffffff1681526020019081526020016000206001018190555060036000815480929190600101919050555060053390806001815401808255809150509060018203906000526020600020016000909192909190916101000a81548173ffffffffffffffffffffffffffffffffffffffff021916908373ffffffffffffffffffffffffffffffffffffffff16021790555050346002600082825401925050819055507f4a5e5e48451acd21ee20a5eb9ed477116d66dfac5efc8802b99926b1fc65a7b63382600254604051808473ffffffffffffffffffffffffffffffffffffffff1673ffffffffffffffffffffffffffffffffffffffff168152602001838152602001828152602001935050505060405180910390a160045460035410151561098a5761098961033e565b5b50565b6000809054906101000a900473ffffffffffffffffffffffffffffffffffffffff1681565b60015481565b60045481565b6005818154811015156109cd57fe5b906000526020600020016000915054906101000a900473ffffffffffffffffffffffffffffffffffffffff1681565b60025481565b6000600581610a119190610a48565b5060006002819055506000600381905550565b610c8060405190810160405280606490602082028038833980820191505090505090565b815481835581811115610a6f57818360005260206000209182019101610a6e9190610a74565b5b505050565b610a9691905b80821115610a92576000816000905550600101610a7a565b5090565b905600a165627a7a72305820bbbe69504221f48a61cb0bff718c540c7bd88110396b0cca311273b71a16aa540029",
  "source": "pragma solidity ^0.4.20;\n\ncontract Casino {\n    address public owner;\n    uint256 public minimumBet;\n    uint256 public totalBet;\n    uint256 public numberOfBets;\n    uint256 public maxAmountOfBets = 3;\n\n    address[] public players;\n\n    struct Player {\n        uint256 amountBet;\n        uint256 numberSelected;\n    }\n\n    // The address of the player and => the user info\n    mapping(address => Player) public playerInfo;\n\n    event BetAccepted(address from, uint256 bet, uint totalValue);\n    event WinNumber(uint256 winNumber);\n    event WinAddress(address from, uint256 winnerEtherAmount);\n \n    constructor(uint256 _minimumBet) public {\n        owner = msg.sender;\n        if(_minimumBet != 0 ) minimumBet = _minimumBet;\n    }\n\n //   function kill() public {\n //       if(msg.sender == owner) selfdestruct(owner);\n //   }\n\n    // To bet for a number between 1 and 10 both inclusive\n    function bet(uint256 numberSelected) public payable {\n        require(!checkPlayerExists(msg.sender));\n        require(numberSelected >= 1 && numberSelected <= 10);\n        require(msg.value >= minimumBet);\n        playerInfo[msg.sender].amountBet = msg.value;\n        playerInfo[msg.sender].numberSelected = numberSelected;\n        numberOfBets++;\n        players.push(msg.sender);\n        totalBet += msg.value;\n        emit BetAccepted(msg.sender, numberSelected, totalBet);\n        if(numberOfBets >= maxAmountOfBets) generateNumberWinner();\n    }\n\n    function checkPlayerExists(address player) public constant returns(bool){\n        for(uint256 i = 0; i < players.length; i++){\n            if(players[i] == player) return true;\n        }\n        return false;\n    }\n\n    // Generates a number between 1 and 10 that will be the winner\n    function generateNumberWinner() public {\n        uint256 numberGenerated = block.number % 10 + 1; // This isn't secure\n        emit WinNumber(numberGenerated);          \n        distributePrizes(numberGenerated);\n    }\n\n    // Sends the corresponding ether to each winner depending on the total bets\n    function distributePrizes(uint256 numberWinner) public {\n        address[100] memory winners; // We have to create a temporary in memory array with fixed size\n        uint256 count = 0; // This is the count for the array of winners\n        for(uint256 i = 0; i < players.length; i++){\n            address playerAddress = players[i];\n            if(playerInfo[playerAddress].numberSelected == numberWinner){\n                winners[count] = playerAddress;\n                count++;\n            }\n            delete playerInfo[playerAddress]; // Delete all the players\n        }\n        players.length = 0; // Delete all the players array  \n        uint256 winnerEtherAmount = totalBet / winners.length; // How much each winner gets\n        uint256 remainder = totalBet - winnerEtherAmount * winners.length;\n        for(uint256 j = 0; j < count; j++){\n            if(winners[j] != address(0)) // Check that the address in this fixed array is not empty\n            winners[j].transfer(winnerEtherAmount);\n            emit WinAddress(winners[j],winnerEtherAmount);\n        }\n        if (remainder != 0) {\n          owner.transfer(remainder);\n        }\n        resetData();\n    }\n\n    function resetData() private {\n        players.length = 0; // Delete all the players array\n        totalBet = 0;\n        numberOfBets = 0;\n    }\n\n    function() public payable {}\n}",
  "sourcePath": "/home/cds/BlockchainDeveloper/Blockchain_Developer/HW4/task1/contracts/casino.sol",
  "compiler": {
    "name": "solc",
    "version": "0.4.26+commit.4563c3fc.Emscripten.clang"
  },
  "schemaVersion": "3.4.7",
  "updatedAt": "2022-05-20T12:33:35.006Z",
  "networkType": "ethereum",
  "devdoc": {
    "methods": {}
  },
  "userdoc": {
    "methods": {}
  }
}